{
  "transactions": [
    {
      "hash": "0x34ec6c3295ac261796480b5d4a09deaa145ce1cf742849d2084a5f904840f714",
      "transactionType": "CALL",
      "contractName": null,
      "contractAddress": "0x6e050e9c9917ef804ac31b4ef1d841f70aac947c",
      "function": "addAsset(address,string)",
      "arguments": [
        "0xAbeD6cce6089D0c0F4aF0e1559a5F64E196aeDdE",
        "Tether USD"
      ],
      "transaction": {
        "from": "0xb92d0a8ca722a90d9a44ba52655901406b53efb8",
        "to": "0x6e050e9c9917ef804ac31b4ef1d841f70aac947c",
        "gas": "0x29d5e",
        "value": "0x0",
        "input": "0x5a109d1d000000000000000000000000abed6cce6089d0c0f4af0e1559a5f64e196aedde0000000000000000000000000000000000000000000000000000000000000040000000000000000000000000000000000000000000000000000000000000000a5465746865722055534400000000000000000000000000000000000000000000",
        "nonce": "0x79",
        "chainId": "0x61"
      },
      "additionalContracts": [],
      "isFixedGasLimit": false
    },
    {
      "hash": "0xb7a1d1626bf738809e42b91f4b2c87d29ceaf976d5b3dea9f8e2039f721c8db5",
      "transactionType": "CALL",
      "contractName": null,
      "contractAddress": "0x6e050e9c9917ef804ac31b4ef1d841f70aac947c",
      "function": "addAsset(address,string)",
      "arguments": [
        "0x337610d27c682E347C9cD60BD4b3b107C9d34dDd",
        "USD Coin"
      ],
      "transaction": {
        "from": "0xb92d0a8ca722a90d9a44ba52655901406b53efb8",
        "to": "0x6e050e9c9917ef804ac31b4ef1d841f70aac947c",
        "gas": "0x262eb",
        "value": "0x0",
        "input": "0x5a109d1d000000000000000000000000337610d27c682e347c9cd60bd4b3b107c9d34ddd0000000000000000000000000000000000000000000000000000000000000040000000000000000000000000000000000000000000000000000000000000000855534420436f696e000000000000000000000000000000000000000000000000",
        "nonce": "0x7a",
        "chainId": "0x61"
      },
      "additionalContracts": [],
      "isFixedGasLimit": false
    },
    {
      "hash": "0x76869a337f2428f5e642ee5ede7e2939b207018653b130281d964e46c82de74c",
      "transactionType": "CALL",
      "contractName": null,
      "contractAddress": "0xbadb94d5252d5b7d2e4f92638afcff5c26f68020",
      "function": "enableBootstrapMode()",
      "arguments": [],
      "transaction": {
        "from": "0xb92d0a8ca722a90d9a44ba52655901406b53efb8",
        "to": "0xbadb94d5252d5b7d2e4f92638afcff5c26f68020",
        "gas": "0x11977",
        "value": "0x0",
        "input": "0xc9ecfb54",
        "nonce": "0x7b",
        "chainId": "0x61"
      },
      "additionalContracts": [],
      "isFixedGasLimit": false
    },
    {
      "hash": "0x61b66ef6220d72d0b3c523656090cc1a664b4328cbed27b55491e221c2f4afb0",
      "transactionType": "CALL",
      "contractName": null,
      "contractAddress": "0xbadb94d5252d5b7d2e4f92638afcff5c26f68020",
      "function": "addBootstrapToken(address)",
      "arguments": [
        "0xAbeD6cce6089D0c0F4aF0e1559a5F64E196aeDdE"
      ],
      "transaction": {
        "from": "0xb92d0a8ca722a90d9a44ba52655901406b53efb8",
        "to": "0xbadb94d5252d5b7d2e4f92638afcff5c26f68020",
        "gas": "0x11b7d",
        "value": "0x0",
        "input": "0x53b4923a000000000000000000000000abed6cce6089d0c0f4af0e1559a5f64e196aedde",
        "nonce": "0x7c",
        "chainId": "0x61"
      },
      "additionalContracts": [],
      "isFixedGasLimit": false
    },
    {
      "hash": "0xa04a88cf2a9ec629286ff57c073d9842d25edfe57b65b507dcce2f9d073e739f",
      "transactionType": "CALL",
      "contractName": null,
      "contractAddress": "0xbadb94d5252d5b7d2e4f92638afcff5c26f68020",
      "function": "addBootstrapToken(address)",
      "arguments": [
        "0x337610d27c682E347C9cD60BD4b3b107C9d34dDd"
      ],
      "transaction": {
        "from": "0xb92d0a8ca722a90d9a44ba52655901406b53efb8",
        "to": "0xbadb94d5252d5b7d2e4f92638afcff5c26f68020",
        "gas": "0x11b7d",
        "value": "0x0",
        "input": "0x53b4923a000000000000000000000000337610d27c682e347c9cd60bd4b3b107c9d34ddd",
        "nonce": "0x7d",
        "chainId": "0x61"
      },
      "additionalContracts": [],
      "isFixedGasLimit": false
    },
    {
      "hash": "0xebfc160e42b741859025003d3cf3ed181f567691bf4de102702da15f43bf9a84",
      "transactionType": "CALL",
      "contractName": null,
      "contractAddress": "0x347991572975449eb3ca91c0da3182725ae1cbee",
      "function": "batchSetLockPeriodMultipliers(uint256[],uint16[])",
      "arguments": [
        "[604800, 2678400, 7689600, 15638400]",
        "[10000, 12000, 15000, 20000]"
      ],
      "transaction": {
        "from": "0xb92d0a8ca722a90d9a44ba52655901406b53efb8",
        "to": "0x347991572975449eb3ca91c0da3182725ae1cbee",
        "gas": "0x51ad1",
        "value": "0x0",
        "input": "0x5db5b529000000000000000000000000000000000000000000000000000000000000004000000000000000000000000000000000000000000000000000000000000000e000000000000000000000000000000000000000000000000000000000000000040000000000000000000000000000000000000000000000000000000000093a80000000000000000000000000000000000000000000000000000000000028de8000000000000000000000000000000000000000000000000000000000007555800000000000000000000000000000000000000000000000000000000000ee9f80000000000000000000000000000000000000000000000000000000000000000400000000000000000000000000000000000000000000000000000000000027100000000000000000000000000000000000000000000000000000000000002ee00000000000000000000000000000000000000000000000000000000000003a980000000000000000000000000000000000000000000000000000000000004e20",
        "nonce": "0x7e",
        "chainId": "0x61"
      },
      "additionalContracts": [],
      "isFixedGasLimit": false
    },
    {
      "hash": "0x3caaa277fd26fbcb3fabbd293816762587dc4bf867f54cfeac6eb31dc36bc8e8",
      "transactionType": "CALL",
      "contractName": null,
      "contractAddress": "0x347991572975449eb3ca91c0da3182725ae1cbee",
      "function": "setAPY(uint256)",
      "arguments": [
        "1500"
      ],
      "transaction": {
        "from": "0xb92d0a8ca722a90d9a44ba52655901406b53efb8",
        "to": "0x347991572975449eb3ca91c0da3182725ae1cbee",
        "gas": "0x114f9",
        "value": "0x0",
        "input": "0x24f45e6700000000000000000000000000000000000000000000000000000000000005dc",
        "nonce": "0x7f",
        "chainId": "0x61"
      },
      "additionalContracts": [],
      "isFixedGasLimit": false
    },
    {
      "hash": "0xd9d5d001e38a91a8c704b0d10fb5f302e673676d9e5371aaa600cc7c028fe3a6",
      "transactionType": "CALL",
      "contractName": null,
      "contractAddress": "0x347991572975449eb3ca91c0da3182725ae1cbee",
      "function": "setFeeRates(uint256,uint256,uint256)",
      "arguments": [
        "0",
        "50",
        "10"
      ],
      "transaction": {
        "from": "0xb92d0a8ca722a90d9a44ba52655901406b53efb8",
        "to": "0x347991572975449eb3ca91c0da3182725ae1cbee",
        "gas": "0x133dd",
        "value": "0x0",
        "input": "0xe538b28000000000000000000000000000000000000000000000000000000000000000000000000000000000000000000000000000000000000000000000000000000032000000000000000000000000000000000000000000000000000000000000000a",
        "nonce": "0x80",
        "chainId": "0x61"
      },
      "additionalContracts": [],
      "isFixedGasLimit": false
    },
    {
      "hash": "0x3391bbdabdfc5427db90e4734df73bdcd41bee76cb3532a298961ecfa1a503f6",
      "transactionType": "CALL",
      "contractName": null,
      "contractAddress": "0x347991572975449eb3ca91c0da3182725ae1cbee",
      "function": "setFarmLend(address)",
      "arguments": [
        "0x0F01d0dBaBEa2578846afB26d9fefbD098C779a3"
      ],
      "transaction": {
        "from": "0xb92d0a8ca722a90d9a44ba52655901406b53efb8",
        "to": "0x347991572975449eb3ca91c0da3182725ae1cbee",
        "gas": "0x120c9",
        "value": "0x0",
        "input": "0xfc9387e90000000000000000000000000f01d0dbabea2578846afb26d9fefbd098c779a3",
        "nonce": "0x81",
        "chainId": "0x61"
      },
      "additionalContracts": [],
      "isFixedGasLimit": false
    },
    {
      "hash": "0x4ee9a62cc7c9aab8d3a775029eac16d781d99b4f066d171146904c1c88f0ea42",
      "transactionType": "CALL",
      "contractName": null,
      "contractAddress": "0x0f01d0dbabea2578846afb26d9fefbd098c779a3",
      "function": "setAllowedDebtToken(address,bool)",
      "arguments": [
        "0xAbeD6cce6089D0c0F4aF0e1559a5F64E196aeDdE",
        "true"
      ],
      "transaction": {
        "from": "0xb92d0a8ca722a90d9a44ba52655901406b53efb8",
        "to": "0x0f01d0dbabea2578846afb26d9fefbd098c779a3",
        "gas": "0x12beb",
        "value": "0x0",
        "input": "0x132e400f000000000000000000000000abed6cce6089d0c0f4af0e1559a5f64e196aedde0000000000000000000000000000000000000000000000000000000000000001",
        "nonce": "0x82",
        "chainId": "0x61"
      },
      "additionalContracts": [],
      "isFixedGasLimit": false
    },
    {
      "hash": "0x8b2feb14a2e2f91b0e5d15cce27f9d2d10582eb9bbf0d53542b3b810249cffdb",
      "transactionType": "CALL",
      "contractName": null,
      "contractAddress": "0x0f01d0dbabea2578846afb26d9fefbd098c779a3",
      "function": "setAllowedDebtToken(address,bool)",
      "arguments": [
        "0x337610d27c682E347C9cD60BD4b3b107C9d34dDd",
        "true"
      ],
      "transaction": {
        "from": "0xb92d0a8ca722a90d9a44ba52655901406b53efb8",
        "to": "0x0f01d0dbabea2578846afb26d9fefbd098c779a3",
        "gas": "0x12beb",
        "value": "0x0",
        "input": "0x132e400f000000000000000000000000337610d27c682e347c9cd60bd4b3b107c9d34ddd0000000000000000000000000000000000000000000000000000000000000001",
        "nonce": "0x83",
        "chainId": "0x61"
      },
      "additionalContracts": [],
      "isFixedGasLimit": false
    },
    {
      "hash": "0xb1c6e7fe1e8e39972a57b52dea352513b8eddd525650e44e5fda94a6b6dd7f60",
      "transactionType": "CALL",
      "contractName": null,
      "contractAddress": "0x0f01d0dbabea2578846afb26d9fefbd098c779a3",
      "function": "setCollateralRatios(uint16,uint16)",
      "arguments": [
        "12500",
        "13000"
      ],
      "transaction": {
        "from": "0xb92d0a8ca722a90d9a44ba52655901406b53efb8",
        "to": "0x0f01d0dbabea2578846afb26d9fefbd098c779a3",
        "gas": "0xb87b",
        "value": "0x0",
        "input": "0x33b548f200000000000000000000000000000000000000000000000000000000000030d400000000000000000000000000000000000000000000000000000000000032c8",
        "nonce": "0x84",
        "chainId": "0x61"
      },
      "additionalContracts": [],
      "isFixedGasLimit": false
    },
    {
      "hash": "0x40d679365fdcc8ed7670d946b0b0a50e32fbe276c05abd350ce6157c1177230d",
      "transactionType": "CALL",
      "contractName": null,
      "contractAddress": "0x0f01d0dbabea2578846afb26d9fefbd098c779a3",
      "function": "setLoanDurationInterestRatios(uint256,uint256)",
      "arguments": [
        "2592000",
        "110"
      ],
      "transaction": {
        "from": "0xb92d0a8ca722a90d9a44ba52655901406b53efb8",
        "to": "0x0f01d0dbabea2578846afb26d9fefbd098c779a3",
        "gas": "0xb31d",
        "value": "0x0",
        "input": "0x5b4428dd0000000000000000000000000000000000000000000000000000000000278d00000000000000000000000000000000000000000000000000000000000000006e",
        "nonce": "0x85",
        "chainId": "0x61"
      },
      "additionalContracts": [],
      "isFixedGasLimit": false
    },
    {
      "hash": "0x6d71511dd8676c5fa4db4d49d8e369967bd7b0f411cb612b5c933756fd8e6b10",
      "transactionType": "CALL",
      "contractName": null,
      "contractAddress": "0x0f01d0dbabea2578846afb26d9fefbd098c779a3",
      "function": "setLoanDurationInterestRatios(uint256,uint256)",
      "arguments": [
        "5184000",
        "200"
      ],
      "transaction": {
        "from": "0xb92d0a8ca722a90d9a44ba52655901406b53efb8",
        "to": "0x0f01d0dbabea2578846afb26d9fefbd098c779a3",
        "gas": "0xb31d",
        "value": "0x0",
        "input": "0x5b4428dd00000000000000000000000000000000000000000000000000000000004f1a0000000000000000000000000000000000000000000000000000000000000000c8",
        "nonce": "0x86",
        "chainId": "0x61"
      },
      "additionalContracts": [],
      "isFixedGasLimit": false
    },
    {
      "hash": "0x0fc4fcf02e4cfc6a5080c8901c63d1438b5e56f725c944e2c0f4e14de988641f",
      "transactionType": "CALL",
      "contractName": null,
      "contractAddress": "0x0f01d0dbabea2578846afb26d9fefbd098c779a3",
      "function": "setPUSDOracle(address)",
      "arguments": [
        "0xBADb94d5252d5B7D2E4f92638AFCFF5C26F68020"
      ],
      "transaction": {
        "from": "0xb92d0a8ca722a90d9a44ba52655901406b53efb8",
        "to": "0x0f01d0dbabea2578846afb26d9fefbd098c779a3",
        "gas": "0xb3a2",
        "value": "0x0",
        "input": "0xdb224315000000000000000000000000badb94d5252d5b7d2e4f92638afcff5c26f68020",
        "nonce": "0x87",
        "chainId": "0x61"
      },
      "additionalContracts": [],
      "isFixedGasLimit": false
    },
    {
      "hash": "0x8be8cb7f0b0ff16504a6caee0cba93d846b86f6eb27ff00d13b043dffb51ef1c",
      "transactionType": "CALL",
      "contractName": null,
      "contractAddress": "0x0f01d0dbabea2578846afb26d9fefbd098c779a3",
      "function": "setPenaltyRatio(uint256)",
      "arguments": [
        "50"
      ],
      "transaction": {
        "from": "0xb92d0a8ca722a90d9a44ba52655901406b53efb8",
        "to": "0x0f01d0dbabea2578846afb26d9fefbd098c779a3",
        "gas": "0xa803",
        "value": "0x0",
        "input": "0x650594810000000000000000000000000000000000000000000000000000000000000032",
        "nonce": "0x88",
        "chainId": "0x61"
      },
      "additionalContracts": [],
      "isFixedGasLimit": false
    },
    {
      "hash": "0x53ebd6b71678156d97e9410752e6027942daea1670992c7733c1a3e0143784be",
      "transactionType": "CALL",
      "contractName": null,
      "contractAddress": "0x0f01d0dbabea2578846afb26d9fefbd098c779a3",
      "function": "setLoanGracePeriod(uint256)",
      "arguments": [
        "604800"
      ],
      "transaction": {
        "from": "0xb92d0a8ca722a90d9a44ba52655901406b53efb8",
        "to": "0x0f01d0dbabea2578846afb26d9fefbd098c779a3",
        "gas": "0xa89e",
        "value": "0x0",
        "input": "0x8b67e5bc0000000000000000000000000000000000000000000000000000000000093a80",
        "nonce": "0x89",
        "chainId": "0x61"
      },
      "additionalContracts": [],
      "isFixedGasLimit": false
    },
    {
      "hash": "0x46d58df45c3e53185b4c84f7d74b4fee476e85d94f1deb9ff7bdd40e0f1830ee",
      "transactionType": "CALL",
      "contractName": null,
      "contractAddress": "0x0f01d0dbabea2578846afb26d9fefbd098c779a3",
      "function": "setPenaltyGracePeriod(uint256)",
      "arguments": [
        "259200"
      ],
      "transaction": {
        "from": "0xb92d0a8ca722a90d9a44ba52655901406b53efb8",
        "to": "0x0f01d0dbabea2578846afb26d9fefbd098c779a3",
        "gas": "0xb4e5",
        "value": "0x0",
        "input": "0xaf8d0658000000000000000000000000000000000000000000000000000000000003f480",
        "nonce": "0x8a",
        "chainId": "0x61"
      },
      "additionalContracts": [],
      "isFixedGasLimit": false
    },
    {
      "hash": "0x148b93aedb438e89b286004dc8528d5b3e37aec32f458f1a7d631b94a0e2f312",
      "transactionType": "CALL",
      "contractName": null,
      "contractAddress": "0x0f01d0dbabea2578846afb26d9fefbd098c779a3",
      "function": "setLiquidationBonus(uint16)",
      "arguments": [
        "300"
      ],
      "transaction": {
        "from": "0xb92d0a8ca722a90d9a44ba52655901406b53efb8",
        "to": "0x0f01d0dbabea2578846afb26d9fefbd098c779a3",
        "gas": "0xb186",
        "value": "0x0",
        "input": "0x28b4a339000000000000000000000000000000000000000000000000000000000000012c",
        "nonce": "0x8b",
        "chainId": "0x61"
      },
      "additionalContracts": [],
      "isFixedGasLimit": false
    },
    {
      "hash": "0xb591098b663571cd685ef669770badb69b17a9ce776debfda951e958d7c1331c",
      "transactionType": "CALL",
      "contractName": null,
      "contractAddress": "0x347991572975449eb3ca91c0da3182725ae1cbee",
      "function": "setSupportedBridgeChain(uint256[],bool[])",
      "arguments": [
        "[97, 421614]",
        "[true, true]"
      ],
      "transaction": {
        "from": "0xb92d0a8ca722a90d9a44ba52655901406b53efb8",
        "to": "0x347991572975449eb3ca91c0da3182725ae1cbee",
        "gas": "0x1b028",
        "value": "0x0",
        "input": "0xd2f70966000000000000000000000000000000000000000000000000000000000000004000000000000000000000000000000000000000000000000000000000000000a0000000000000000000000000000000000000000000000000000000000000000200000000000000000000000000000000000000000000000000000000000000610000000000000000000000000000000000000000000000000000000000066eee000000000000000000000000000000000000000000000000000000000000000200000000000000000000000000000000000000000000000000000000000000010000000000000000000000000000000000000000000000000000000000000001",
        "nonce": "0x8c",
        "chainId": "0x61"
      },
      "additionalContracts": [],
      "isFixedGasLimit": false
    },
    {
      "hash": "0xcd3253e5f57447be3799d8c3db16cb34a99e8be1e0461226caf052b9fdcb2b4c",
      "transactionType": "CALL",
      "contractName": null,
      "contractAddress": "0x347991572975449eb3ca91c0da3182725ae1cbee",
      "function": "setBridgeMessenger(address)",
      "arguments": [
        "0x4b120321889cA96591ca59E93291E96AB57cb281"
      ],
      "transaction": {
        "from": "0xb92d0a8ca722a90d9a44ba52655901406b53efb8",
        "to": "0x347991572975449eb3ca91c0da3182725ae1cbee",
        "gas": "0x132ad",
        "value": "0x0",
        "input": "0xdc651ccb0000000000000000000000004b120321889ca96591ca59e93291e96ab57cb281",
        "nonce": "0x8d",
        "chainId": "0x61"
      },
      "additionalContracts": [],
      "isFixedGasLimit": false
    },
    {
      "hash": "0x5dde18e7dd5dfc2b4865440a0f4341353345381ce1677c5d6eda1d9e424393b4",
      "transactionType": "CALL",
      "contractName": null,
      "contractAddress": "0x15ce1ecf85d1a4a4ce208005b37b6b5e0c3253e2",
      "function": "grantRole(bytes32,address)",
      "arguments": [
        "0x0f51adb3f49e4a9bbb17b3783f025995eaf8c24be2c8eefff214bdfda05ef94d",
        "0x347991572975449EB3Ca91c0DA3182725aE1cBeE"
      ],
      "transaction": {
        "from": "0xb92d0a8ca722a90d9a44ba52655901406b53efb8",
        "to": "0x15ce1ecf85d1a4a4ce208005b37b6b5e0c3253e2",
        "gas": "0x1407b",
        "value": "0x0",
        "input": "0x2f2ff15d0f51adb3f49e4a9bbb17b3783f025995eaf8c24be2c8eefff214bdfda05ef94d000000000000000000000000347991572975449eb3ca91c0da3182725ae1cbee",
        "nonce": "0x8e",
        "chainId": "0x61"
      },
      "additionalContracts": [],
      "isFixedGasLimit": false
    }
  ],
  "receipts": [
    {
      "status": "0x1",
      "cumulativeGasUsed": "0x31121",
      "logs": [
        {
          "address": "0x6e050e9c9917ef804ac31b4ef1d841f70aac947c",
          "topics": [
            "0xfd288a46d080f2a24ab4d47d4231a7ae3a4538d57a6c1c9afe6807e6c949f6ea",
            "0x000000000000000000000000abed6cce6089d0c0f4af0e1559a5f64e196aedde"
          ],
          "data": "0x0000000000000000000000000000000000000000000000000000000000000020000000000000000000000000000000000000000000000000000000000000000a5465746865722055534400000000000000000000000000000000000000000000",
          "blockHash": "0x0a02111274b26f93e88702d1f891002ce1929159f3efdc6d6e5de3b6aaa9e8b6",
          "blockNumber": "0x4a13238",
          "blockTimestamp": "0x693951b0",
          "transactionHash": "0x34ec6c3295ac261796480b5d4a09deaa145ce1cf742849d2084a5f904840f714",
          "transactionIndex": "0x1",
          "logIndex": "0x2",
          "removed": false
        }
      ],
      "logsBloom": "0x00000000000000000000000000000000020200000000000000000000000000000000000000000000000000000000000000000000000000000000000000000000000000000480000000000000000000000000000000000000000000000000000000000000000000001000000000000000000000000000000000000000000000000000000000000000000000000000000000000000000000000000000000000000000000000000000000000008000000000000000000000000000000000000010000000000000000000000000040000000000000000000000000000000000000000000000000000000000010000000000000000000000000000000000000000000",
      "type": "0x2",
      "transactionHash": "0x34ec6c3295ac261796480b5d4a09deaa145ce1cf742849d2084a5f904840f714",
      "transactionIndex": "0x1",
      "blockHash": "0x0a02111274b26f93e88702d1f891002ce1929159f3efdc6d6e5de3b6aaa9e8b6",
      "blockNumber": "0x4a13238",
      "gasUsed": "0x1e49d",
      "effectiveGasPrice": "0x5f5e100",
      "from": "0xb92d0a8ca722a90d9a44ba52655901406b53efb8",
      "to": "0x6e050e9c9917ef804ac31b4ef1d841f70aac947c",
      "contractAddress": null
    },
    {
      "status": "0x1",
      "cumulativeGasUsed": "0x4b2da",
      "logs": [
        {
          "address": "0x6e050e9c9917ef804ac31b4ef1d841f70aac947c",
          "topics": [
            "0xfd288a46d080f2a24ab4d47d4231a7ae3a4538d57a6c1c9afe6807e6c949f6ea",
            "0x000000000000000000000000337610d27c682e347c9cd60bd4b3b107c9d34ddd"
          ],
          "data": "0x0000000000000000000000000000000000000000000000000000000000000020000000000000000000000000000000000000000000000000000000000000000855534420436f696e000000000000000000000000000000000000000000000000",
          "blockHash": "0x0a02111274b26f93e88702d1f891002ce1929159f3efdc6d6e5de3b6aaa9e8b6",
          "blockNumber": "0x4a13238",
          "blockTimestamp": "0x693951b0",
          "transactionHash": "0x40d679365fdcc8ed7670d946b0b0a50e32fbe276c05abd350ce6157c1177230d",
          "transactionIndex": "0x2",
          "logIndex": "0x3",
          "removed": false
        }
      ],
      "logsBloom": "0x00000000000000000000000000000000020000000000000000000000000000000000000000000000000000000000000000000000000000000000000000100000000000000080000000000000000000000000000000000000000000000001000000000000000000001000000000000000000000000000000000000000000000000000000000000000000000000000008000000000000000000000000000000000000000000000000000000008000000000000000000000000000000000000010000000000000000000000000040000000000000000000000000000000000000000000000000000000000000000000000000000000000000000000000000000000",
      "type": "0x2",
      "transactionHash": "0x40d679365fdcc8ed7670d946b0b0a50e32fbe276c05abd350ce6157c1177230d",
      "transactionIndex": "0x2",
      "blockHash": "0x0a02111274b26f93e88702d1f891002ce1929159f3efdc6d6e5de3b6aaa9e8b6",
      "blockNumber": "0x4a13238",
      "gasUsed": "0x1a1b9",
      "effectiveGasPrice": "0x5f5e100",
      "from": "0xb92d0a8ca722a90d9a44ba52655901406b53efb8",
      "to": "0x6e050e9c9917ef804ac31b4ef1d841f70aac947c",
      "contractAddress": null
    },
    {
      "status": "0x1",
      "cumulativeGasUsed": "0x57ea1",
      "logs": [
        {
          "address": "0xbadb94d5252d5b7d2e4f92638afcff5c26f68020",
          "topics": [
            "0x05eb9775b90fe4bfcec71d0f1805e247526a6e1d35559122ca0eac2f1125daaf"
          ],
          "data": "0x",
          "blockHash": "0x0a02111274b26f93e88702d1f891002ce1929159f3efdc6d6e5de3b6aaa9e8b6",
          "blockNumber": "0x4a13238",
          "blockTimestamp": "0x693951b0",
          "transactionHash": "0xb1c6e7fe1e8e39972a57b52dea352513b8eddd525650e44e5fda94a6b6dd7f60",
          "transactionIndex": "0x3",
          "logIndex": "0x4",
          "removed": false
        }
      ],
      "logsBloom": "0x00000000000000000000000000000000000000000000000000000000000000000000000000000000000000000000000000000000000000000000000000000000000000000000000000000000000000000000000000000000000000000000000000000000000000000000000000000000000000000000000000000000000000000000000000000000000000001000000000000000000000000000000000002080000000000000000000000000000000000000000000000000000000000000000000000000008000000000000000000000000000000000000000000008000000000000000000000000000000400000000000000000000000000000000000000000",
      "type": "0x2",
      "transactionHash": "0xb1c6e7fe1e8e39972a57b52dea352513b8eddd525650e44e5fda94a6b6dd7f60",
      "transactionIndex": "0x3",
      "blockHash": "0x0a02111274b26f93e88702d1f891002ce1929159f3efdc6d6e5de3b6aaa9e8b6",
      "blockNumber": "0x4a13238",
      "gasUsed": "0xcbc7",
      "effectiveGasPrice": "0x5f5e100",
      "from": "0xb92d0a8ca722a90d9a44ba52655901406b53efb8",
      "to": "0xbadb94d5252d5b7d2e4f92638afcff5c26f68020",
      "contractAddress": null
    },
    {
      "status": "0x1",
      "cumulativeGasUsed": "0x64be0",
      "logs": [
        {
          "address": "0xbadb94d5252d5b7d2e4f92638afcff5c26f68020",
          "topics": [
            "0x7a5ec7b426b41c0f649172aa4d8cf1eeb6dd7a700655de9f412372d665866269",
            "0x000000000000000000000000abed6cce6089d0c0f4af0e1559a5f64e196aedde"
          ],
          "data": "0x",
          "blockHash": "0x0a02111274b26f93e88702d1f891002ce1929159f3efdc6d6e5de3b6aaa9e8b6",
          "blockNumber": "0x4a13238",
          "blockTimestamp": "0x693951b0",
          "transactionHash": "0x61b66ef6220d72d0b3c523656090cc1a664b4328cbed27b55491e221c2f4afb0",
          "transactionIndex": "0x4",
          "logIndex": "0x5",
          "removed": false
        }
      ],
      "logsBloom": "0x00001000000000000000000000000000000200000000000000000000000000000000000000000000000000000000000000000000000000000000000000000000000000000400000000000000000000000000000000000000000000000000000000000000000000000000000000000000000000000000000000000000100000000000000000000000000000000000000000000000000000000000000000002000000000000000000000000000000000000000000000000000000000000000000000000000000000000000000000000000000000000000000000000008000000000000000008000000000010400000000000000000000000000000000000000000",
      "type": "0x2",
      "transactionHash": "0x61b66ef6220d72d0b3c523656090cc1a664b4328cbed27b55491e221c2f4afb0",
      "transactionIndex": "0x4",
      "blockHash": "0x0a02111274b26f93e88702d1f891002ce1929159f3efdc6d6e5de3b6aaa9e8b6",
      "blockNumber": "0x4a13238",
      "gasUsed": "0xcd3f",
      "effectiveGasPrice": "0x5f5e100",
      "from": "0xb92d0a8ca722a90d9a44ba52655901406b53efb8",
      "to": "0xbadb94d5252d5b7d2e4f92638afcff5c26f68020",
      "contractAddress": null
    },
    {
      "status": "0x1",
      "cumulativeGasUsed": "0x7191f",
      "logs": [
        {
          "address": "0xbadb94d5252d5b7d2e4f92638afcff5c26f68020",
          "topics": [
            "0x7a5ec7b426b41c0f649172aa4d8cf1eeb6dd7a700655de9f412372d665866269",
            "0x000000000000000000000000337610d27c682e347c9cd60bd4b3b107c9d34ddd"
          ],
          "data": "0x",
          "blockHash": "0x0a02111274b26f93e88702d1f891002ce1929159f3efdc6d6e5de3b6aaa9e8b6",
          "blockNumber": "0x4a13238",
          "blockTimestamp": "0x693951b0",
          "transactionHash": "0x8be8cb7f0b0ff16504a6caee0cba93d846b86f6eb27ff00d13b043dffb51ef1c",
          "transactionIndex": "0x5",
          "logIndex": "0x6",
          "removed": false
        }
      ],
      "logsBloom": "0x00001000000000000000000000000000000000000000000000000000000000000000000000000000000000000000000000000000000000000000000000100000000000000000000000000000000000000000000000000000000000000001000000000000000000000000000000000000000000000000000000000000100000000000000000000000000000000000008000000000000000000000000000002000000000000000000000000000000000000000000000000000000000000000000000000000000000000000000000000000000000000000000000000008000000000000000008000000000000400000000000000000000000000000000000000000",
      "type": "0x2",
      "transactionHash": "0x8be8cb7f0b0ff16504a6caee0cba93d846b86f6eb27ff00d13b043dffb51ef1c",
      "transactionIndex": "0x5",
      "blockHash": "0x0a02111274b26f93e88702d1f891002ce1929159f3efdc6d6e5de3b6aaa9e8b6",
      "blockNumber": "0x4a13238",
      "gasUsed": "0xcd3f",
      "effectiveGasPrice": "0x5f5e100",
      "from": "0xb92d0a8ca722a90d9a44ba52655901406b53efb8",
      "to": "0xbadb94d5252d5b7d2e4f92638afcff5c26f68020",
      "contractAddress": null
    },
    {
      "status": "0x1",
      "cumulativeGasUsed": "0xacb3d",
      "logs": [
        {
          "address": "0x347991572975449eb3ca91c0da3182725ae1cbee",
          "topics": [
            "0x2d5936e58b2061b52cab6cc2226c89349fa4e0ddfed0336d3e78e78706e3f396",
            "0x0000000000000000000000000000000000000000000000000000000000093a80"
          ],
          "data": "0x0000000000000000000000000000000000000000000000000000000000002710",
          "blockHash": "0x0a02111274b26f93e88702d1f891002ce1929159f3efdc6d6e5de3b6aaa9e8b6",
          "blockNumber": "0x4a13238",
          "blockTimestamp": "0x693951b0",
          "transactionHash": "0x4ee9a62cc7c9aab8d3a775029eac16d781d99b4f066d171146904c1c88f0ea42",
          "transactionIndex": "0x6",
          "logIndex": "0x7",
          "removed": false
        },
        {
          "address": "0x347991572975449eb3ca91c0da3182725ae1cbee",
          "topics": [
            "0x2d5936e58b2061b52cab6cc2226c89349fa4e0ddfed0336d3e78e78706e3f396",
            "0x000000000000000000000000000000000000000000000000000000000028de80"
          ],
          "data": "0x0000000000000000000000000000000000000000000000000000000000002ee0",
          "blockHash": "0x0a02111274b26f93e88702d1f891002ce1929159f3efdc6d6e5de3b6aaa9e8b6",
          "blockNumber": "0x4a13238",
          "blockTimestamp": "0x693951b0",
          "transactionHash": "0x4ee9a62cc7c9aab8d3a775029eac16d781d99b4f066d171146904c1c88f0ea42",
          "transactionIndex": "0x6",
          "logIndex": "0x8",
          "removed": false
        },
        {
          "address": "0x347991572975449eb3ca91c0da3182725ae1cbee",
          "topics": [
            "0x2d5936e58b2061b52cab6cc2226c89349fa4e0ddfed0336d3e78e78706e3f396",
            "0x0000000000000000000000000000000000000000000000000000000000755580"
          ],
          "data": "0x0000000000000000000000000000000000000000000000000000000000003a98",
          "blockHash": "0x0a02111274b26f93e88702d1f891002ce1929159f3efdc6d6e5de3b6aaa9e8b6",
          "blockNumber": "0x4a13238",
          "blockTimestamp": "0x693951b0",
          "transactionHash": "0x4ee9a62cc7c9aab8d3a775029eac16d781d99b4f066d171146904c1c88f0ea42",
          "transactionIndex": "0x6",
          "logIndex": "0x9",
          "removed": false
        },
        {
          "address": "0x347991572975449eb3ca91c0da3182725ae1cbee",
          "topics": [
            "0x2d5936e58b2061b52cab6cc2226c89349fa4e0ddfed0336d3e78e78706e3f396",
            "0x0000000000000000000000000000000000000000000000000000000000ee9f80"
          ],
          "data": "0x0000000000000000000000000000000000000000000000000000000000004e20",
          "blockHash": "0x0a02111274b26f93e88702d1f891002ce1929159f3efdc6d6e5de3b6aaa9e8b6",
          "blockNumber": "0x4a13238",
          "blockTimestamp": "0x693951b0",
          "transactionHash": "0x4ee9a62cc7c9aab8d3a775029eac16d781d99b4f066d171146904c1c88f0ea42",
          "transactionIndex": "0x6",
          "logIndex": "0xa",
          "removed": false
        }
      ],
      "logsBloom": "0x00000000000000002000000000000000000000000000020000000010000000000000000000001000000000000000000000000000100000000400002000002000000000000000000000000000000000000000000000000000000000000800000000000000000000000000000000000001000020000400000000000000000000000000000800000000000000000000000000000000000000000000000000000000004000000000000000000000000000000000800000000000000000000000000000000000000000000400000000000000000000000000000000000000200000000000000000000000000000000000000000010000000000000000000000000000",
      "type": "0x2",
      "transactionHash": "0x4ee9a62cc7c9aab8d3a775029eac16d781d99b4f066d171146904c1c88f0ea42",
      "transactionIndex": "0x6",
      "blockHash": "0x0a02111274b26f93e88702d1f891002ce1929159f3efdc6d6e5de3b6aaa9e8b6",
      "blockNumber": "0x4a13238",
      "gasUsed": "0x3b21e",
      "effectiveGasPrice": "0x5f5e100",
      "from": "0xb92d0a8ca722a90d9a44ba52655901406b53efb8",
      "to": "0x347991572975449eb3ca91c0da3182725ae1cbee",
      "contractAddress": null
    },
    {
      "status": "0x1",
      "cumulativeGasUsed": "0xb93c4",
      "logs": [
        {
          "address": "0x347991572975449eb3ca91c0da3182725ae1cbee",
          "topics": [
            "0x4ba63353cbc1a353a58aa520c08c7762086d485c230e8f4bf4ea15fdf37b30f6"
          ],
          "data": "0x00000000000000000000000000000000000000000000000000000000000007d000000000000000000000000000000000000000000000000000000000000005dc00000000000000000000000000000000000000000000000000000000693951b0",
          "blockHash": "0x0a02111274b26f93e88702d1f891002ce1929159f3efdc6d6e5de3b6aaa9e8b6",
          "blockNumber": "0x4a13238",
          "blockTimestamp": "0x693951b0",
          "transactionHash": "0xd9d5d001e38a91a8c704b0d10fb5f302e673676d9e5371aaa600cc7c028fe3a6",
          "transactionIndex": "0x7",
          "logIndex": "0xb",
          "removed": false
        }
      ],
      "logsBloom": "0x00000000000000002000000000000000000000000000000000000010100000000000000000000000000000000000000000000000000000000000000000000000000000000000000000000000000000000000000000000000000000000000000000000000000000000000000000000000000000000000000000000000000000000000000800000000000000000000000000000000000000000000000000000000000000000000000400000000000000000000000000000000000000000000000000000000000000000000000000000000000000000000000000000000000000000000000000000000000000000000000000010000000000000000000000000000",
      "type": "0x2",
      "transactionHash": "0xd9d5d001e38a91a8c704b0d10fb5f302e673676d9e5371aaa600cc7c028fe3a6",
      "transactionIndex": "0x7",
      "blockHash": "0x0a02111274b26f93e88702d1f891002ce1929159f3efdc6d6e5de3b6aaa9e8b6",
      "blockNumber": "0x4a13238",
      "gasUsed": "0xc887",
      "effectiveGasPrice": "0x5f5e100",
      "from": "0xb92d0a8ca722a90d9a44ba52655901406b53efb8",
      "to": "0x347991572975449eb3ca91c0da3182725ae1cbee",
      "contractAddress": null
    },
    {
      "status": "0x1",
      "cumulativeGasUsed": "0xc6646",
      "logs": [
        {
          "address": "0x347991572975449eb3ca91c0da3182725ae1cbee",
          "topics": [
            "0xe4af0531d4ba8c578b5076b042e4505372fb4f4986aea8ebf77f4ff1585e3e75"
          ],
          "data": "0x00000000000000000000000000000000000000000000000000000000000000000000000000000000000000000000000000000000000000000000000000000032000000000000000000000000000000000000000000000000000000000000000a",
          "blockHash": "0x0a02111274b26f93e88702d1f891002ce1929159f3efdc6d6e5de3b6aaa9e8b6",
          "blockNumber": "0x4a13238",
          "blockTimestamp": "0x693951b0",
          "transactionHash": "0xcd3253e5f57447be3799d8c3db16cb34a99e8be1e0461226caf052b9fdcb2b4c",
          "transactionIndex": "0x8",
          "logIndex": "0xc",
          "removed": false
        }
      ],
      "logsBloom": "0x00000000000000000000000000000000000000000000000000000010000000000000000000000000000000000000000000000000000000000000000000000000000000000000000002000000000000000000000000000000000000000000000000000000000000000000000000000000000000000000000000000000000000000000000800000000000000000000000000000000000000000000000000000000000000000000000000000000000000000000000000000000000000000000000000000000000000000000000000000000800000000000000000000000000000000004000000000000000000000000000000010000000000000000000000000000",
      "type": "0x2",
      "transactionHash": "0xcd3253e5f57447be3799d8c3db16cb34a99e8be1e0461226caf052b9fdcb2b4c",
      "transactionIndex": "0x8",
      "blockHash": "0x0a02111274b26f93e88702d1f891002ce1929159f3efdc6d6e5de3b6aaa9e8b6",
      "blockNumber": "0x4a13238",
      "gasUsed": "0xd282",
      "effectiveGasPrice": "0x5f5e100",
      "from": "0xb92d0a8ca722a90d9a44ba52655901406b53efb8",
      "to": "0x347991572975449eb3ca91c0da3182725ae1cbee",
      "contractAddress": null
    },
    {
      "status": "0x1",
      "cumulativeGasUsed": "0xd375a",
      "logs": [
        {
          "address": "0x347991572975449eb3ca91c0da3182725ae1cbee",
          "topics": [
            "0xcaaaf563d15b44a16f146929c6d95d13f6523d56fa2b93d0a70450e8e21d6826",
            "0x0000000000000000000000000f01d0dbabea2578846afb26d9fefbd098c779a3"
          ],
          "data": "0x",
          "blockHash": "0x0a02111274b26f93e88702d1f891002ce1929159f3efdc6d6e5de3b6aaa9e8b6",
          "blockNumber": "0x4a13238",
          "blockTimestamp": "0x693951b0",
          "transactionHash": "0x0fc4fcf02e4cfc6a5080c8901c63d1438b5e56f725c944e2c0f4e14de988641f",
          "transactionIndex": "0x9",
          "logIndex": "0xd",
          "removed": false
        }
      ],
      "logsBloom": "0x00000400000000000000000000000000000000000000000000000010010000000000000000000000000000000000000000000000000000000000000000000000000000000000000000000000800000000000000000000000080000000000000000000000000000000080000000000000000000000000000000000000000000000000000800000000000000000000000000000000000000000000000000000000000000000000000000000000000000000000000000000000000000000000000000000000000000000000000000000000000000000000000000000000000000000000000000000000000000000000000000010800000000000000000000000000",
      "type": "0x2",
      "transactionHash": "0x0fc4fcf02e4cfc6a5080c8901c63d1438b5e56f725c944e2c0f4e14de988641f",
      "transactionIndex": "0x9",
      "blockHash": "0x0a02111274b26f93e88702d1f891002ce1929159f3efdc6d6e5de3b6aaa9e8b6",
      "blockNumber": "0x4a13238",
      "gasUsed": "0xd114",
      "effectiveGasPrice": "0x5f5e100",
      "from": "0xb92d0a8ca722a90d9a44ba52655901406b53efb8",
      "to": "0x347991572975449eb3ca91c0da3182725ae1cbee",
      "contractAddress": null
    },
    {
      "status": "0x1",
      "cumulativeGasUsed": "0xe046d",
      "logs": [
        {
          "address": "0x0f01d0dbabea2578846afb26d9fefbd098c779a3",
          "topics": [
            "0xa187509012abe72b0346f380156767fb786b7aa1416fc10d21276e28bfaa0d40"
          ],
          "data": "0x000000000000000000000000abed6cce6089d0c0f4af0e1559a5f64e196aedde0000000000000000000000000000000000000000000000000000000000000001",
          "blockHash": "0x0a02111274b26f93e88702d1f891002ce1929159f3efdc6d6e5de3b6aaa9e8b6",
          "blockNumber": "0x4a13238",
          "blockTimestamp": "0x693951b0",
          "transactionHash": "0x3391bbdabdfc5427db90e4734df73bdcd41bee76cb3532a298961ecfa1a503f6",
          "transactionIndex": "0xa",
          "logIndex": "0xe",
          "removed": false
        }
      ],
      "logsBloom": "0x00000000000000000000000000000000000000000000000008000000000000000000000000000000000080000000000000000000000000000000000000008000000000000000000000000000000000000000000000000000000000000000000000000000080000000000000000000000000000000000000000000000000000000000000000000000000000000000000000000000000000000000000000000000000000000000000000000000000000000000000000000000000000000000000000000000000000000000000000000000000000000000000200000000000000000000000001000000000000000000000000000000000000000000000000000000",
      "type": "0x2",
      "transactionHash": "0x3391bbdabdfc5427db90e4734df73bdcd41bee76cb3532a298961ecfa1a503f6",
      "transactionIndex": "0xa",
      "blockHash": "0x0a02111274b26f93e88702d1f891002ce1929159f3efdc6d6e5de3b6aaa9e8b6",
      "blockNumber": "0x4a13238",
      "gasUsed": "0xcd13",
      "effectiveGasPrice": "0x5f5e100",
      "from": "0xb92d0a8ca722a90d9a44ba52655901406b53efb8",
      "to": "0x0f01d0dbabea2578846afb26d9fefbd098c779a3",
      "contractAddress": null
    },
    {
      "status": "0x1",
      "cumulativeGasUsed": "0xed180",
      "logs": [
        {
          "address": "0x0f01d0dbabea2578846afb26d9fefbd098c779a3",
          "topics": [
            "0xa187509012abe72b0346f380156767fb786b7aa1416fc10d21276e28bfaa0d40"
          ],
          "data": "0x000000000000000000000000337610d27c682e347c9cd60bd4b3b107c9d34ddd0000000000000000000000000000000000000000000000000000000000000001",
          "blockHash": "0x0a02111274b26f93e88702d1f891002ce1929159f3efdc6d6e5de3b6aaa9e8b6",
          "blockNumber": "0x4a13238",
          "blockTimestamp": "0x693951b0",
          "transactionHash": "0xb591098b663571cd685ef669770badb69b17a9ce776debfda951e958d7c1331c",
          "transactionIndex": "0xb",
          "logIndex": "0xf",
          "removed": false
        }
      ],
      "logsBloom": "0x00000000000000000000000000000000000000000000000008000000000000000000000000000000000080000000000000000000000000000000000000008000000000000000000000000000000000000000000000000000000000000000000000000000080000000000000000000000000000000000000000000000000000000000000000000000000000000000000000000000000000000000000000000000000000000000000000000000000000000000000000000000000000000000000000000000000000000000000000000000000000000000000200000000000000000000000001000000000000000000000000000000000000000000000000000000",
      "type": "0x2",
      "transactionHash": "0xb591098b663571cd685ef669770badb69b17a9ce776debfda951e958d7c1331c",
      "transactionIndex": "0xb",
      "blockHash": "0x0a02111274b26f93e88702d1f891002ce1929159f3efdc6d6e5de3b6aaa9e8b6",
      "blockNumber": "0x4a13238",
      "gasUsed": "0xcd13",
      "effectiveGasPrice": "0x5f5e100",
      "from": "0xb92d0a8ca722a90d9a44ba52655901406b53efb8",
      "to": "0x0f01d0dbabea2578846afb26d9fefbd098c779a3",
      "contractAddress": null
    },
    {
      "status": "0x1",
      "cumulativeGasUsed": "0xf5710",
      "logs": [
        {
          "address": "0x0f01d0dbabea2578846afb26d9fefbd098c779a3",
          "topics": [
            "0xe8bfb17840d9ca04157d96cdabf303a9c67719112a96c33612f78f508423f6fe"
          ],
          "data": "0x00000000000000000000000000000000000000000000000000000000000030d400000000000000000000000000000000000000000000000000000000000030d4",
          "blockHash": "0x0a02111274b26f93e88702d1f891002ce1929159f3efdc6d6e5de3b6aaa9e8b6",
          "blockNumber": "0x4a13238",
          "blockTimestamp": "0x693951b0",
          "transactionHash": "0xa04a88cf2a9ec629286ff57c073d9842d25edfe57b65b507dcce2f9d073e739f",
          "transactionIndex": "0xc",
          "logIndex": "0x10",
          "removed": false
        },
        {
          "address": "0x0f01d0dbabea2578846afb26d9fefbd098c779a3",
          "topics": [
            "0xd6d73ca3a024956b6016b217b95959f610eadee85b9729bd63d9aeb35a4570ae"
          ],
          "data": "0x00000000000000000000000000000000000000000000000000000000000032c800000000000000000000000000000000000000000000000000000000000032c8",
          "blockHash": "0x0a02111274b26f93e88702d1f891002ce1929159f3efdc6d6e5de3b6aaa9e8b6",
          "blockNumber": "0x4a13238",
          "blockTimestamp": "0x693951b0",
          "transactionHash": "0xa04a88cf2a9ec629286ff57c073d9842d25edfe57b65b507dcce2f9d073e739f",
          "transactionIndex": "0xc",
          "logIndex": "0x11",
          "removed": false
        }
      ],
      "logsBloom": "0x00000000000000000000000000000000000000000000000008000000000000000000000000000000400080000000000000000000000000000000000000008000000000000000000000000000010000000000000000200000000000000000000000000000000000000400000000000000000000000000000000000000000000000000000000000000000000000000000000000000000000000000000000000000000000000000010000000000000000000000000000000000000000000000000000000000000000000000000000000000000000000000000000000000000000000000000000000000000000000000000000000000000800000000000000000000",
      "type": "0x2",
      "transactionHash": "0xa04a88cf2a9ec629286ff57c073d9842d25edfe57b65b507dcce2f9d073e739f",
      "transactionIndex": "0xc",
      "blockHash": "0x0a02111274b26f93e88702d1f891002ce1929159f3efdc6d6e5de3b6aaa9e8b6",
      "blockNumber": "0x4a13238",
      "gasUsed": "0x8590",
      "effectiveGasPrice": "0x5f5e100",
      "from": "0xb92d0a8ca722a90d9a44ba52655901406b53efb8",
      "to": "0x0f01d0dbabea2578846afb26d9fefbd098c779a3",
      "contractAddress": null
    },
    {
      "status": "0x1",
      "cumulativeGasUsed": "0xfd189",
      "logs": [],
      "logsBloom": "0x00000000000000000000000000000000000000000000000000000000000000000000000000000000000000000000000000000000000000000000000000000000000000000000000000000000000000000000000000000000000000000000000000000000000000000000000000000000000000000000000000000000000000000000000000000000000000000000000000000000000000000000000000000000000000000000000000000000000000000000000000000000000000000000000000000000000000000000000000000000000000000000000000000000000000000000000000000000000000000000000000000000000000000000000000000000",
      "type": "0x2",
      "transactionHash": "0x8b2feb14a2e2f91b0e5d15cce27f9d2d10582eb9bbf0d53542b3b810249cffdb",
      "transactionIndex": "0xd",
      "blockHash": "0x0a02111274b26f93e88702d1f891002ce1929159f3efdc6d6e5de3b6aaa9e8b6",
      "blockNumber": "0x4a13238",
      "gasUsed": "0x7a79",
      "effectiveGasPrice": "0x5f5e100",
      "from": "0xb92d0a8ca722a90d9a44ba52655901406b53efb8",
      "to": "0x0f01d0dbabea2578846afb26d9fefbd098c779a3",
      "contractAddress": null
    },
    {
      "status": "0x1",
      "cumulativeGasUsed": "0x104c02",
      "logs": [],
      "logsBloom": "0x00000000000000000000000000000000000000000000000000000000000000000000000000000000000000000000000000000000000000000000000000000000000000000000000000000000000000000000000000000000000000000000000000000000000000000000000000000000000000000000000000000000000000000000000000000000000000000000000000000000000000000000000000000000000000000000000000000000000000000000000000000000000000000000000000000000000000000000000000000000000000000000000000000000000000000000000000000000000000000000000000000000000000000000000000000000",
      "type": "0x2",
      "transactionHash": "0x6d71511dd8676c5fa4db4d49d8e369967bd7b0f411cb612b5c933756fd8e6b10",
      "transactionIndex": "0xe",
      "blockHash": "0x0a02111274b26f93e88702d1f891002ce1929159f3efdc6d6e5de3b6aaa9e8b6",
      "blockNumber": "0x4a13238",
      "gasUsed": "0x7a79",
      "effectiveGasPrice": "0x5f5e100",
      "from": "0xb92d0a8ca722a90d9a44ba52655901406b53efb8",
      "to": "0x0f01d0dbabea2578846afb26d9fefbd098c779a3",
      "contractAddress": null
    },
    {
      "status": "0x1",
      "cumulativeGasUsed": "0x10ce10",
      "logs": [
        {
          "address": "0x0f01d0dbabea2578846afb26d9fefbd098c779a3",
          "topics": [
            "0xface0e1d854dcc45deb85272ce084739e96463472d9266ca09ff5b081f8981e7"
          ],
          "data": "0x000000000000000000000000badb94d5252d5b7d2e4f92638afcff5c26f68020000000000000000000000000badb94d5252d5b7d2e4f92638afcff5c26f68020",
          "blockHash": "0x0a02111274b26f93e88702d1f891002ce1929159f3efdc6d6e5de3b6aaa9e8b6",
          "blockNumber": "0x4a13238",
          "blockTimestamp": "0x693951b0",
          "transactionHash": "0x148b93aedb438e89b286004dc8528d5b3e37aec32f458f1a7d631b94a0e2f312",
          "transactionIndex": "0xf",
          "logIndex": "0x12",
          "removed": false
        }
      ],
      "logsBloom": "0x00000000000000000000000000000000000000000000000008000000000000000000000000000000000080000000000000000000000000000000000000008000000000004000000000000000000000000000000000000000000000000000000000000000000000000000000000000000000000000000010000000000000000000000000000000000000000000000000000000000000000000000000000000000000000000000000000000000000000000000000000000000000000000000000000000000000000000000000000000000000000000000000000000000000000000000000000000000000000000000000000000000800000000000000000000000",
      "type": "0x2",
      "transactionHash": "0x148b93aedb438e89b286004dc8528d5b3e37aec32f458f1a7d631b94a0e2f312",
      "transactionIndex": "0xf",
      "blockHash": "0x0a02111274b26f93e88702d1f891002ce1929159f3efdc6d6e5de3b6aaa9e8b6",
      "blockNumber": "0x4a13238",
      "gasUsed": "0x820e",
      "effectiveGasPrice": "0x5f5e100",
      "from": "0xb92d0a8ca722a90d9a44ba52655901406b53efb8",
      "to": "0x0f01d0dbabea2578846afb26d9fefbd098c779a3",
      "contractAddress": null
    },
    {
      "status": "0x1",
      "cumulativeGasUsed": "0x1147b4",
      "logs": [],
      "logsBloom": "0x00000000000000000000000000000000000000000000000000000000000000000000000000000000000000000000000000000000000000000000000000000000000000000000000000000000000000000000000000000000000000000000000000000000000000000000000000000000000000000000000000000000000000000000000000000000000000000000000000000000000000000000000000000000000000000000000000000000000000000000000000000000000000000000000000000000000000000000000000000000000000000000000000000000000000000000000000000000000000000000000000000000000000000000000000000000",
      "type": "0x2",
      "transactionHash": "0x3caaa277fd26fbcb3fabbd293816762587dc4bf867f54cfeac6eb31dc36bc8e8",
      "transactionIndex": "0x10",
      "blockHash": "0x0a02111274b26f93e88702d1f891002ce1929159f3efdc6d6e5de3b6aaa9e8b6",
      "blockNumber": "0x4a13238",
      "gasUsed": "0x79a4",
      "effectiveGasPrice": "0x5f5e100",
      "from": "0xb92d0a8ca722a90d9a44ba52655901406b53efb8",
      "to": "0x0f01d0dbabea2578846afb26d9fefbd098c779a3",
      "contractAddress": null
    },
    {
      "status": "0x1",
      "cumulativeGasUsed": "0x11c1c8",
      "logs": [],
      "logsBloom": "0x00000000000000000000000000000000000000000000000000000000000000000000000000000000000000000000000000000000000000000000000000000000000000000000000000000000000000000000000000000000000000000000000000000000000000000000000000000000000000000000000000000000000000000000000000000000000000000000000000000000000000000000000000000000000000000000000000000000000000000000000000000000000000000000000000000000000000000000000000000000000000000000000000000000000000000000000000000000000000000000000000000000000000000000000000000000",
      "type": "0x2",
      "transactionHash": "0x5dde18e7dd5dfc2b4865440a0f4341353345381ce1677c5d6eda1d9e424393b4",
      "transactionIndex": "0x11",
      "blockHash": "0x0a02111274b26f93e88702d1f891002ce1929159f3efdc6d6e5de3b6aaa9e8b6",
      "blockNumber": "0x4a13238",
      "gasUsed": "0x7a14",
      "effectiveGasPrice": "0x5f5e100",
      "from": "0xb92d0a8ca722a90d9a44ba52655901406b53efb8",
      "to": "0x0f01d0dbabea2578846afb26d9fefbd098c779a3",
      "contractAddress": null
    },
    {
      "status": "0x1",
      "cumulativeGasUsed": "0x1244c0",
      "logs": [],
      "logsBloom": "0x00000000000000000000000000000000000000000000000000000000000000000000000000000000000000000000000000000000000000000000000000000000000000000000000000000000000000000000000000000000000000000000000000000000000000000000000000000000000000000000000000000000000000000000000000000000000000000000000000000000000000000000000000000000000000000000000000000000000000000000000000000000000000000000000000000000000000000000000000000000000000000000000000000000000000000000000000000000000000000000000000000000000000000000000000000000",
      "type": "0x2",
      "transactionHash": "0x76869a337f2428f5e642ee5ede7e2939b207018653b130281d964e46c82de74c",
      "transactionIndex": "0x12",
      "blockHash": "0x0a02111274b26f93e88702d1f891002ce1929159f3efdc6d6e5de3b6aaa9e8b6",
      "blockNumber": "0x4a13238",
      "gasUsed": "0x82f8",
      "effectiveGasPrice": "0x5f5e100",
      "from": "0xb92d0a8ca722a90d9a44ba52655901406b53efb8",
      "to": "0x0f01d0dbabea2578846afb26d9fefbd098c779a3",
      "contractAddress": null
    },
    {
      "status": "0x1",
      "cumulativeGasUsed": "0x12be23",
      "logs": [],
      "logsBloom": "0x00000000000000000000000000000000000000000000000000000000000000000000000000000000000000000000000000000000000000000000000000000000000000000000000000000000000000000000000000000000000000000000000000000000000000000000000000000000000000000000000000000000000000000000000000000000000000000000000000000000000000000000000000000000000000000000000000000000000000000000000000000000000000000000000000000000000000000000000000000000000000000000000000000000000000000000000000000000000000000000000000000000000000000000000000000000",
      "type": "0x2",
      "transactionHash": "0xb7a1d1626bf738809e42b91f4b2c87d29ceaf976d5b3dea9f8e2039f721c8db5",
      "transactionIndex": "0x13",
      "blockHash": "0x0a02111274b26f93e88702d1f891002ce1929159f3efdc6d6e5de3b6aaa9e8b6",
      "blockNumber": "0x4a13238",
      "gasUsed": "0x7963",
      "effectiveGasPrice": "0x5f5e100",
      "from": "0xb92d0a8ca722a90d9a44ba52655901406b53efb8",
      "to": "0x0f01d0dbabea2578846afb26d9fefbd098c779a3",
      "contractAddress": null
    },
    {
      "status": "0x1",
      "cumulativeGasUsed": "0x13f703",
      "logs": [
        {
          "address": "0x347991572975449eb3ca91c0da3182725ae1cbee",
          "topics": [
            "0x68824e6020ae0b32a6fff6d9bc2f6d24f0c9c096956dc34730606a2255b9c00d"
          ],
          "data": "0x000000000000000000000000000000000000000000000000000000000000004000000000000000000000000000000000000000000000000000000000000000a0000000000000000000000000000000000000000000000000000000000000000200000000000000000000000000000000000000000000000000000000000000610000000000000000000000000000000000000000000000000000000000066eee000000000000000000000000000000000000000000000000000000000000000200000000000000000000000000000000000000000000000000000000000000010000000000000000000000000000000000000000000000000000000000000001",
          "blockHash": "0x0a02111274b26f93e88702d1f891002ce1929159f3efdc6d6e5de3b6aaa9e8b6",
          "blockNumber": "0x4a13238",
          "blockTimestamp": "0x693951b0",
          "transactionHash": "0x46d58df45c3e53185b4c84f7d74b4fee476e85d94f1deb9ff7bdd40e0f1830ee",
          "transactionIndex": "0x14",
          "logIndex": "0x13",
          "removed": false
        }
      ],
      "logsBloom": "0x00000000000000000000000000000000000000000000000000000010000000000000000000000000000000000000000000000000000000000000000000000000000000000000000000000000000000000000000000000000000000000080000000000000000000000010000000000000000000000000000000000000000000000000200800000000000000000000000000000000000000000000000000000000000000000000000000000000000000000000000000000000000000000000000000000000000000000000000000000000000000000000000000000000000000000000000000000000000000000000000000010000000000000000000000000000",
      "type": "0x2",
      "transactionHash": "0x46d58df45c3e53185b4c84f7d74b4fee476e85d94f1deb9ff7bdd40e0f1830ee",
      "transactionIndex": "0x14",
      "blockHash": "0x0a02111274b26f93e88702d1f891002ce1929159f3efdc6d6e5de3b6aaa9e8b6",
      "blockNumber": "0x4a13238",
      "gasUsed": "0x138e0",
      "effectiveGasPrice": "0x5f5e100",
      "from": "0xb92d0a8ca722a90d9a44ba52655901406b53efb8",
      "to": "0x347991572975449eb3ca91c0da3182725ae1cbee",
      "contractAddress": null
    },
    {
      "status": "0x1",
      "cumulativeGasUsed": "0x14c8b5",
      "logs": [
        {
          "address": "0x347991572975449eb3ca91c0da3182725ae1cbee",
          "topics": [
            "0x6b5e62f27b08a76c4fb8b6922b6ea36390968deb878e146ace459359efcd0212",
            "0x0000000000000000000000000000000000000000000000000000000000000000",
            "0x0000000000000000000000004b120321889ca96591ca59e93291e96ab57cb281"
          ],
          "data": "0x",
          "blockHash": "0x0a02111274b26f93e88702d1f891002ce1929159f3efdc6d6e5de3b6aaa9e8b6",
          "blockNumber": "0x4a13238",
          "blockTimestamp": "0x693951b0",
          "transactionHash": "0x53ebd6b71678156d97e9410752e6027942daea1670992c7733c1a3e0143784be",
          "transactionIndex": "0x15",
          "logIndex": "0x14",
          "removed": false
        }
      ],
      "logsBloom": "0x00000000000000000000000000000000000000000000000000000010000000000000000000000000000000000000000000000000000000000000000000000000000000000000000000000000000000020000000000000000000000000000000000000000020000000000000000000800000000000000000000000000000000000000000800000000000000000000004000000000001000000000000000000000000000000000000000000000000000000000000000000100008000000000000000000000000000000000000000000000200000000000000000000000000020000000000000000000000000000000000000010000000000000000000000000000",
      "type": "0x2",
      "transactionHash": "0x53ebd6b71678156d97e9410752e6027942daea1670992c7733c1a3e0143784be",
      "transactionIndex": "0x15",
      "blockHash": "0x0a02111274b26f93e88702d1f891002ce1929159f3efdc6d6e5de3b6aaa9e8b6",
      "blockNumber": "0x4a13238",
      "gasUsed": "0xd1b2",
      "effectiveGasPrice": "0x5f5e100",
      "from": "0xb92d0a8ca722a90d9a44ba52655901406b53efb8",
      "to": "0x347991572975449eb3ca91c0da3182725ae1cbee",
      "contractAddress": null
    },
    {
      "status": "0x1",
      "cumulativeGasUsed": "0x15a3d7",
      "logs": [
        {
          "address": "0x15ce1ecf85d1a4a4ce208005b37b6b5e0c3253e2",
          "topics": [
            "0x2f8788117e7eff1d82e926ec794901d17c78024a50270940304540a733656f0d",
            "0x0f51adb3f49e4a9bbb17b3783f025995eaf8c24be2c8eefff214bdfda05ef94d",
            "0x000000000000000000000000347991572975449eb3ca91c0da3182725ae1cbee",
            "0x000000000000000000000000b92d0a8ca722a90d9a44ba52655901406b53efb8"
          ],
          "data": "0x",
          "blockHash": "0x0a02111274b26f93e88702d1f891002ce1929159f3efdc6d6e5de3b6aaa9e8b6",
          "blockNumber": "0x4a13238",
          "blockTimestamp": "0x693951b0",
          "transactionHash": "0xebfc160e42b741859025003d3cf3ed181f567691bf4de102702da15f43bf9a84",
          "transactionIndex": "0x16",
          "logIndex": "0x15",
          "removed": false
        }
      ],
      "logsBloom": "0x00000004000000000000000000000000000000000000000000000000000000000000000000000000000100000000000000000000000000000000000000000010000000000000000000000000000000000000100000000000000000000000000002008000000000000000000000000000000000000000000000000000000000000000000000000000000180000000000000000000000000000000000000000000000000001000000000000000000000000000000000000000001000000000000000000000000000000000000000000000000000000000000100000000000000000080008000000000000000000000020000000000020000000000000000000000",
      "type": "0x2",
      "transactionHash": "0xebfc160e42b741859025003d3cf3ed181f567691bf4de102702da15f43bf9a84",
      "transactionIndex": "0x16",
      "blockHash": "0x0a02111274b26f93e88702d1f891002ce1929159f3efdc6d6e5de3b6aaa9e8b6",
      "blockNumber": "0x4a13238",
      "gasUsed": "0xdb22",
      "effectiveGasPrice": "0x5f5e100",
      "from": "0xb92d0a8ca722a90d9a44ba52655901406b53efb8",
      "to": "0x15ce1ecf85d1a4a4ce208005b37b6b5e0c3253e2",
      "contractAddress": null
    }
  ],
  "libraries": [],
  "pending": [],
  "returns": {},
  "timestamp": 1765364146532,
  "chain": 97,
  "commit": "57ab607"
}